:020000041000EA
:1000000000B5324B212058609868022188439860DF
:10001000D860186158612E4B002199600221596106
:100020000121F02299502B49196001219960352056
:1000300000F044F80222904214D00621196600F024
:1000400034F8196E01211966002018661A6600F04E
:100050002CF8196E196E196E052000F02FF8012189
:100060000842F9D1002199601B49196000215960AB
:100070001A491B48016001219960EB211966A021F2
:10008000196600F012F800219960164914480160C1
:100090000121996001BC002800D000471248134993
:1000A000086003C880F30888084703B5996A0420EC
:1000B0000142FBD001200142F8D103BD02B5186610
:1000C0001866FFF7F2FF186E186E02BD00000240BE
:1000D000000000180000070000035F00212200005C
:1000E000F4000018222000A00001001008ED00E03C
:1000F00000000000000000000000000074B24E7A12
:1001000000200420F7010010C3010010C5010010F9
:10011000C1010010C1010010C1010010C101001097
:10012000C1010010C1010010C1010010C701001081
:10013000C1010010C1010010C9010010CB01001065
:10014000CD010010CD010010CD010010CD01001037
:10015000CD010010CD010010CD010010CD01001027
:10016000CD010010CD010010CD010010CD01001017
:10017000CD010010CD010010CD010010CD01001007
:10018000CD010010CD010010CD010010CD010010F7
:10019000CD010010CD010010CD010010CD010010E7
:1001A000CD010010CD010010CD010010CD010010D7
:1001B000CD010010CD010010CD010010CD010010C7
:1001C00000BE00BE00BE00BE00BE00BE00F04BF888
:1001D000103800BEF2EB8871208C0010448C0010A7
:1001E0003402001090A31AE700202149086006C8D5
:1001F00081F3088810471F48006800282FD10DA4FC
:100200000ECC002902D000F012F8F9E71A491B4A77
:10021000002000E001C19142FCD1194988471949E9
:1002200088471949884700BEFDE701C901C29A42C3
:10023000FBD37047448C0010C00000201004002045
:10024000948F00100000042000000420948F001000
:1002500000100420001004200000000070470B482C
:1002600003F0D0F90047EFF30580C0B270470000FB
:1002700008ED00E0000000D0100400205013002022
:10028000B11B00107D050010811C001057560000A6
:1002900006005250ABB36053548500100600525014
:1002A000861C030264850010060052505422A29D51
:1002B0006C85001005005250DE65F468948F0010C4
:1002C000F8B5C046054B0648033310B51B1A062B7C
:1002D00003D9044B002B00D0984710BD1004002018
:1002E00010040020000000000648074910B5091A54
:1002F0008910CB0F5918491003D0044B002B00D0A4
:10030000984710BD100400201004002000000000D9
:1003100010B5074C2378002B09D1FFF7D3FF054B0D
:10032000002B02D0044800E000BF0123237010BD61
:10033000180500200000000088750010094B10B55A
:10034000002B03D00849094800E000BF08480368B3
:10035000002B02D1FFF7C8FF10BD064B002BF9D0D0
:100360009847F7E7000000001C0500208875001082
:10037000100400200000000010B5054B1B688342EC
:1003800000D010BD0349012006F0CEFFF9E7C046BA
:1003900088100020C507001010B582B006F0D2FE0C
:1003A000594C2178594804F025FA242301AA1380D6
:1003B0006A46138023780C2B00D99AE09B00544A9C
:1003C000D3589F460021534806F0DAFE01215248D7
:1003D00006F0D6FE02B010BD0021504806F0D0FE57
:1003E00001214F4806F0CCFEF4E700214D4806F00D
:1003F000C7FE01214C4806F0C3FEEBE700214B4845
:1004000006F0BEFE01214A4806F0BAFEE2E70021EE
:10041000484806F0B5FE0121474806F0B1FED9E78D
:100420000021464806F0ACFE454C200007F014F8C9
:100430000200210001A807F041F8012101A806F0FF
:100440009FFEC7E700213F4806F09AFE01213E4883
:1004500006F096FEBEE700213C4806F091FE3C4CBB
:10046000200006F0F9FF02002100684607F026F898
:100470000121684606F084FEACE70021354806F00D
:100480007FFE354B1A6800921B796A461371304C17
:10049000200006F0E1FF02002100684607F00EF898
:1004A0000121684606F06CFE94E700212B4806F017
:1004B00067FE01212A4806F063FE8BE700212948E8
:1004C00006F05EFE0121204806F05AFE82E7002178
:1004D000254806F055FE0121244806F051FE79E733
:1004E0000021234806F04CFE0121224806F048FE78
:1004F00070E7214C0021200006F042FE012120007F
:1005000006F03EFE66E7C04685100020AC7600107F
:1005100088750010C0760010CC760010D8760010D8
:10052000EC76001000770010107700102077001094
:1005300030770010387700104C770010607700108B
:100540000010002074770010887700109C7700104E
:10055000E8020020AC770010C0770010C8770010C8
:10056000D4770010DC770010F07700104C100020DA
:1005700004780010107800101478001070B504F0A2
:1005800045F906F00DFE06F045FE002006F004FFDA
:100590000D49012006F0C8FE0C4804F02BF9FFF7C6
:1005A000FBFE5A21002006F0D3FE094C0025200056
:1005B000290000F0D3FF0521002006F0C9FE20002D
:1005C000290000F0CBFFECE7C5070010A076001073
:1005D00040420F0010B582B06B46D871714C217843
:1005E000714804F007F923780C2B1ED89B006F4A42
:1005F000D3589F466B4607331B78232B15D1012216
:100600006B4B1A7011E06B4607331B782A2B05D011
:10061000232B0AD10B22664B1A7006E00222644B90
:100620001A7002E00422624B1A70614C2178614812
:1006300004F0E0F85B4B1A7823789A4203D0594AC9
:100640001370FFF7A9FE02B010BD6B4607331B788D
:100650002A2B05D0232BE8D10722554B1A70E4E74B
:100660000522534B1A70E0E76B4607331B78232BA8
:10067000DBD106224E4B1A70D7E76B4607331B7847
:100680002A2B05D0232BD0D10022494B1A70CCE75E
:100690000022494B1A700432454B1A70C5E76B466D
:1006A000DC79232C0ED02300303BDBB2092B04D89D
:1006B000414806F0D1FE052808D9442C0DD0FFF79B
:1006C0006BFEB2E708223A4B1A70F8E701226B463C
:1006D000D91D394806F0F2FEF1E7374B1B78002BA5
:1006E000EDD0354C200006F0B7FE431E225CE254EC
:1006F000E5E76B4607331B78232B96D109222C4B59
:100700001A7092E70A222A4B1A708EE76B4607335B
:100710001B78232B00D088E70022254B1A7084E732
:100720006B46DC79232C13D02300303BDBB2092B42
:1007300019D8224806F090FE052814D81F4B1B78C4
:10074000002B09D16B46D91D1C4806F07DFE0CE03C
:100750000822174B1A7008E001226B46D91D174872
:1007600006F0ACFE01E0442C0BD0144C200006F047
:1007700073FE02002100124804F03CF8FFF70CFE63
:1007800053E70E4B1B78002BEFD00C4C200006F0EB
:1007900063FE431E225CE254E7E70022044B1A701A
:1007A00043E7C0468510002008760010BC75001095
:1007B0008410002030760010E80200204C10002049
:1007C0001876001070B584B01238032801D904B02F
:1007D00070BD06F043FDFFF7FDFE00F0CFFC040006
:1007E00000F09CFE002905DA144B154A3D211548FE
:1007F00001F04AFA144A002312184B41994202D8D8
:1008000004D1904202D901225242D317002B05DABB
:100810000A4B0B4A3D210B4801F036FA01210291A7
:100820000021019109490091200000F0BDFC084B16
:1008300018600849002006F077FDC8E73C760010F4
:10084000F07500105876001040420F007903001038
:1008500088100020C507001010B58300084A944690
:1008600063441C6840226240C0241440802252012C
:1008700013431C60C000034B9C466044416010BDA4
:1008800004C001400040014080000B4B9C46604486
:1008900000290DD00823002A0CD10022134302683E
:1008A00053400C22134080225201104303607047D2
:1008B0000023F0E70422F1E704C00140C308072247
:1008C0001040800081403C339B00014A99507047A2
:1008D00000400140F8B507000C0016001D00FFF7AE
:1008E000EDFFFB089B00ED18072038408000844096
:1008F000002E04D1C0239B011D432C60F8BD802332
:100900009B011D432C60F9E710B5D0231B061B6823
:10091000002B03D1024BFFF7DDFF10BD014BFAE7BF
:10092000004101403041014010B51C00FFF7ECFFD1
:10093000D0231B061B689B00054A9C5005490D20CF
:1009400001F044FC01210D2001F028FC10BDC0463F
:10095000440500205909001070B5D0231B061B6800
:10096000002B02D0124D002405E0124DFBE73100B0
:100970002000984701341D2C18D8E30808339B0049
:100980005E59072323409B00DE4033000F261E40A4
:10099000F0D031002000FFF791FFD0231B061B6829
:1009A0009B00054A9B58002BE1D1E3E770BDC04690
:1009B00030410140004101404405002010B50123B1
:1009C0008340D0221206936293610521FFF744FF12
:1009D00010BD0000EFF3108072B6034B1B68002BB4
:1009E000FBD0BFF35F8F70472C0100D0BFF35F8F48
:1009F0000022024B1A6080F3108870472C0100D04F
:100A0000F8B504000F001500FFF7E4FFF9086118BE
:100A10000E7807243C403300E340DB0707D4012273
:100A2000A240D3B233430B70FFF7E0FFF8BD3900AB
:100A3000280001F047F9F0B583B0070001911400D8
:100A40001E00FFF7C7FFB44210D8E308FB1819785F
:100A5000072222400D00D540ED0701D50134F2E711
:100A600001269640F2B21143197001E0012464425C
:100A7000FFF7BCFF002C02DB200003B0F0BD019BA0
:100A8000002BF9D0089801F01DF90000002307E0C1
:100A9000054A9A189200BFF35F8F0021116001335D
:100AA0001F2BF5D97047C04640000034054A107826
:100AB000431CDBB21370172B02D91022014B1A70A2
:100AC0007047C0461A03002000B583B00100044BF4
:100AD00000931F2318220348FFF7ADFF03B000BDAA
:100AE0001C780010C8080020034B1B680220184027
:100AF000431E9841C0B2704700C0064040BF00206E
:100B00000021704770B505000C00080000F0FAFCE9
:100B1000200000F003FE0849200000F043FDFFF72D
:100B2000C5FF064B9C466044800068602C75A4009D
:100B3000034BE55070BDC046210E0010400000344C
:100B4000F00F002010B5002922D003681B7B9942CA
:100B50001ED8174B9C466144090183689C4661443A
:100B60000C684968002A19D003681B7B9A4215D883
:100B700083680F488446624412019A1810685368CB
:100B8000020001208B4201D80ED00020C0B210BD5F
:100B9000084B094A3921094801F076F8054B064A05
:100BA0003921064801F070F8A242EFD8EDE7C046BF
:100BB000FFFFFF0FE879001090780010EC7A00102A
:100BC00010B500291FD0037B99421CD84B005B183D
:100BD000033B0468A446634400291AD0002A1ED0AF
:100BE000914222D0002A26D0047BA24223D8046856
:100BF000500080180338201881701978002920D0FF
:100C000041701A7010BD104B104A6921104801F054
:100C10003BF8104B104A70310D4801F035F80F4B7E
:100C20000D4A71210A4801F02FF80D4B0A4A722132
:100C3000074801F029F8044B044A6921044801F0EF
:100C400023F81A70DEE7C046407A00105078001092
:100C50005C7A0010A87A00105C780010B47A00105A
:100C6000C07A001070B506000D001400002916D0DF
:100C7000002A01D1080013E08068736898470028B3
:100C800006D12A0021003000FFF79AFF200007E07C
:100C9000220029003000FFF793FF280000E0100039
:100CA00070BD000070B5CE4600B583B0050000925F
:100CB00001930AAB1C780BAB1B789946002C28D00B
:100CC00003685A7B944214D0002C0CD01A7B9442B7
:100CD00009D81A6863001B19033BD3189B78002BB3
:100CE00008D0012306E0434B434A6921434800F002
:100CF000CBFF0123002B06D1002C28D1200003B00C
:100D000004BC914670BD3E4B3E4A62213E4800F015
:100D1000BBFF03689C7B002CEED012D01A7B944260
:100D20000FD862001219033A19688C466244517850
:100D30009973002900D1D9730023937053701370F5
:100D4000DAE72C4B2C4A69212C4800F09DFF002C3F
:100D500039D02B681B7B9C4235D82C4BE3181B01E8
:100D6000AA68944663440099019A19605A60089AE7
:100D70009A60099ADA602E68002C2AD02FD0337B33
:100D80009C422CD863001B19033B32689446634491
:100D900000229A705A701A70717B22003000FFF79F
:100DA00061FF70738442A9D1287D009A019B00F0F5
:100DB00041FC061E02D04B46002B16D00C9B002B8C
:100DC0009CD01E709AE7124B124A39210E4800F04F
:100DD0005BFF114B114AA621084800F055FF054B57
:100DE000054A6921054800F04FFF2868210000F0FE
:100DF0005FFEE3E7407A0010507800105C7A001044
:100E000014790010C8780010EC7A0010FFFFFF0F73
:100E1000E879001090780010E87A001070780010DF
:100E2000F0B5D6464F464646C0B58CB00B90820012
:100E3000B54BD55837E100230024089309946A681C
:100E4000EFF3108672B61368002BFCD0BFF35F8FF0
:100E50002F687C7B002C41D100239846002700207E
:100E60006B68BFF35F8F00221A6086F31088002F33
:100E700000D116E153461E02264341463000B847D2
:100E8000069007916A68EFF3108972B61368002B19
:100E9000FCD0BFF35F8F079B002B00DB89E02B6941
:100EA000002B00D185E0B34271D1089A099B0892CA
:100EB0001E0006980799121A8B419E4203D805D14D
:100EC0000899914202D901225242D317002B64DAC9
:100ED0008E4B8F4A3D218F4800F0D6FE002C1AD051
:100EE0003A7B944217D88C4BE2181201AB689846B3
:100EF000904443461A685B68121A8B411000002B1D
:100F00000FDD43461A685B680B9800F093FB0023E3
:100F100098460027A4E7814B814A3921814800F097
:100F2000B3FE002B01D10028EBD10021380000F0E6
:100F3000B5FDA04219D143461A685B68089209932F
:100F400043469F68DB689846002F14D0002C18D0C9
:100F50002B681B7B9C4214D8631EEA68D35C9A46BC
:100F60001B021843286100207AE76F4B6F4A8921E2
:100F70006C4800F089FE6E4B6C4A8D21694800F088
:100F800083FE664B6B4A3E21664800F07DFE6A4B4D
:100F9000664A9C21634800F077FE002104910131EC
:100FA000039102944146019100972800FFF77AFED1
:100FB0006EE0079B002B0EDD2B69002B11D0B34296
:100FC00025D100F0ABFA002927DA504B504A3D21D9
:100FD000504800F059FE069A079B002B01D1002AC9
:100FE000EAD12B68002C69D05A7B94423CD0002C6B
:100FF00034D01A7B944231D862001219033A19682E
:101000008C4662449278002A2FD001222DE04A4B70
:10101000464A9F21434800F037FE0890069A079BF6
:1010200012184B41994202D804D1904202D90122B0
:101030005242D317002B05DA344B354A3D2135484F
:1010400000F022FE002104910131039102944146F7
:10105000019100972800FFF725FE19E0374B384A29
:101060006921384800F010FE0122002A26D1DA7BDF
:10107000002A29D1DC73002C39D02B681B7B9C42C1
:1010800035D8013CEB689C466444237801332370D7
:1010900000232B616A68BFF35F8F136089F31088A8
:1010A0000120002829D000F039FA002900DBC2E62F
:1010B000164B174A3D21174800F0E6FD224B234A04
:1010C000F721204800F0E0FD002A0AD0197B8A426F
:1010D00007D851008A18033A19688C466244547044
:1010E000C8E7164B164A6921164800F0CDFD0B4B98
:1010F000104A3E210B4800F0C7FD0CB01CBC9046C6
:101100009946A246F0BDC046F00F00203C76001084
:101110003878001058760010FFFFFF0FE8790010B4
:1011200090780010EC7A00103C790010E078001004
:10113000547900109C78001060790010407A0010FB
:10114000507800105C7A00109C79001080780010B4
:1011500010B5084B5B68002B00D010BD054C230078
:10116000054A1021206800F0C9FB03212000FFF789
:10117000C9FCF2E71C030020450B001010B5064B1C
:101180005B68002B01D0044810BD044B044A592170
:10119000044800F079FDC0461C0300201C7A0010B2
:1011A000B0780010EC7A0010F0B5DE4657464E4697
:1011B0004546E0B589B0804616001F00129B99464F
:1011C00014AB1B789A4600221F236B441A7030E040
:1011D00000280AD042461268127B904205D8421E6F
:1011E0004146C9688A5C934643E0424B424A3E21ED
:1011F000424800F049FD00F091F9002905DA404B22
:10120000404A3D21404800F03FFD24184D41A9428D
:1012100002D804D1A04202D901246442E517002D6E
:1012200005DA374B374A3D21374800F02DFD2600BF
:101230002F0043465B68EFF3108572B61A6854427C
:101240005441E4B2002CF9D1BFF35F8F1F236B44EC
:101250000493002303930293139B01934B46009343
:1012600032003B004046FFF71DFD031EB0D10022B7
:10127000934641464968BFF35F8F00220A6085F3B9
:101280001088002B2AD01F236B441B78002B02D11F
:101290005A4614020443002B22D05346002B1FD081
:1012A00013992000C84704000D0003000B431FD012
:1012B0000029A0DA32003B00361BAF41BB4202D806
:1012C00004D1B24202D901267642F717002FB0DAD4
:1012D0000B4B0C4A3D210C4800F0D6FC0124644223
:1012E000200009B03CBC90469946A246AB46F0BDF2
:1012F0000024F5E7E87900109C780010EC7A0010E3
:101300003C760010387800105876001070B5040054
:101310004268EFF3108572B61368002BFCD0BFF360
:101320005F8FCAB22668737B9A4215D0002A0DD00F
:10133000337B9A420AD853009B18033B306884469B
:1013400063449B78002B23D1002006E0214B224AE6
:101350006921224800F098FC0120002833D023693D
:10136000994217D0090AC9B2002A19D023681B7BF9
:101370009A4215D8531EE068C35C994216D00020EB
:101380006368BFF35F8F00221A6085F3108870BD19
:101390000120E2E7124B134AFB21134800F074FCD2
:1013A000124B134A3E21104800F06EFC1100300031
:1013B00000F07EFB0028E3D10E4B0A4A8121490050
:1013C000094800F061FC23699942D9D100232361C7
:1013D000D6E7C046407A0010507800105C7A0010C2
:1013E000C0790010FC780010EC7A0010E879001049
:1013F0009C780010E479001070B584B005000C00F2
:10140000FFF7BCFE002302930193194B00932A00BF
:101410002300FFF7C9FE061E11DD20BFFFF7AEFE59
:101420003100FFF773FF134B5B6A9C421BD8114AD4
:10143000926AAA421AD29C4213D0012014E00D4BAA
:101440005B6A9C4209D80B4A926AAA4207D29C4224
:1014500001D0012008E0002006E0002004E0012087
:1014600002E0002000E0002004B070BD0120FBE796
:10147000FD0A00100040054070B5EFF305833F20E2
:1014800018401038EFF3108472B6194B1B68002B0C
:10149000FBD0BFF35F8F012319008140154A5163D0
:1014A000154A12781500C5402B4214D0114B5D6AC5
:1014B0008300124E9B599D4206D38300104D5B5909
:1014C0008A430D490A7007E00A4A031D9B00995898
:1014D0009950002300E00023BFF35F8F0021044AEE
:1014E000116084F31088002B00D0984770BDC0466F
:1014F000280100D000400540861000203C1000204C
:10150000B808002010B50100024A0348FFF778FA36
:1015100010BDC046587B001081100020044B596A52
:1015200000E01900024B986A5B6A9942F9D1704752
:1015300000400540084B5B6A01E0074B5B6A8B4249
:10154000FBD301E0044B5B6A8B4203D1024B9B6AE5
:101550008342F7D37047C0460040054070B5040091
:101560000D00FFF7DBFF02000B00200029008018B0
:1015700059418B4202D804D1824202D90120404213
:10158000C117002905DA044B044A3D21044800F044
:101590007BFBFFF7CFFF70BD3C760010247B001073
:1015A0005876001070B504000D00EFF3108672B687
:1015B0001B4B1B68002BFBD0BFF35F8F002D1CD093
:1015C000200000F0FBFD174B98420BD019002000C3
:1015D00000F0FCFD0121200000F0E0FD0123A3400C
:1015E000114A1360A400114BE550BFF35F8F002236
:1015F0000B4B1A6086F3108870BDA20000210B4BC4
:10160000D1500122A2400A490B7893430B7005493F
:10161000200000F005FE0021200000F0BFFDE4E7FF
:10162000280100D07914001038600540B808002067
:1016300086100020F0B5DE4600B584B00500140029
:1016400001921E000293FFF769FF03948E422CD98A
:10165000EFF3108B72B6294B1B68002BFBD0BFF346
:101660005F8F274A17780124AC40E3B23B431370E5
:10167000244B5C632A1D92000199D150AA00224993
:10168000029850501B6A23421BD11E4B1B6C2342F5
:1016900011D00020BFF35F8F0022184B1A608BF32C
:1016A000108804B004BC9346F0BD8E4201D1844240
:1016B000CED80120F5E7154B154AB321154800F0A7
:1016C000E3FAFFF72BFF8E4214D802D1039B83422B
:1016D00010D80B4B1B789F420ED00A4B1C625C63E8
:1016E0001F222A40012393400B4A1360044B1F70B2
:1016F0000120CFE70020CDE70120CBE7280100D073
:1017000086100020004005403C1000207C7B00102B
:101710003C7B0010A07B001080E200E010B5EFF3EE
:10172000108472B60A4B1B68002BFBD0BFF35F8F8F
:1017300001238340074A136207490A789A430A70D3
:10174000BFF35F8F0022024B1A6084F3108810BD34
:10175000280100D00040054086100020024B9C4626
:1017600061448900016070474000003410B50400F6
:10177000FFF79CF901002000FFF7F0FFFF23237122
:10178000BFF35F8F10BD10B5FFF7E8FFBFF35F8FAA
:1017900010BD10B504000120FFF796F901002000EC
:1017A000FFF7F1FF10BD000010B500291FD0037B2B
:1017B00099421CD84B005B18033B0468A446634461
:1017C00000291AD0002A1ED0914222D0002A26D009
:1017D000047BA24223D804685000801803382018E4
:1017E00081701978002920D041701A7010BD104BFB
:1017F000104A6921104800F047FA104B104A703126
:101800000D4800F041FA0F4B0D4A71210A4800F0D3
:101810003BFA0D4B0A4A7221074800F035FA044B97
:10182000044A6921044800F02FFA1A70DEE7C04626
:10183000407A0010987C00105C7A0010A87A0010A2
:10184000A47C0010B47A0010C07A001070B50600B5
:101850000D001400002916D0002A01D1080013E061
:10186000806873689847002806D12A00210030005C
:10187000FFF79AFF200007E0220029003000FFF761
:1018800093FF280000E0100070BD000010B5002399
:10189000437301338373037BC373012308E05A004E
:1018A000D218033A01688C4662440133DBB25370AC
:1018B000027B93420AD2002B02D0027B9342EED9E4
:1018C0000B4B0C4A69210C4800F0DEF9002A09D0C4
:1018D000924207D8016853009A18033A8A180023E5
:1018E000537010BD024B034A6921034800F0CCF944
:1018F000407A0010987C00105C7A001010B50173DB
:1019000042608360FFF7C2FF10BD000070B50400A5
:10191000002901D1080070BD002928D0037B99421D
:1019200025D84B005B18033B0268944663445A7801
:10193000002AEFD021D0007B82421ED850008018B0
:1019400003382568AC4660444678002545705D70D4
:101950002000FFF77BFF050031002000FFF7D6FFD6
:10196000020029002000FFF771FF0100D2E7064BBB
:10197000064A6921064800F087F9034B034A6921AA
:10198000034800F081F9C046407A0010987C0010AE
:101990005C7A001070B505000C001600002928D0F4
:1019A0002DD0037B99422AD84B005B18033B026879
:1019B000944663445A78002A27D19A78002A2AD17B
:1019C0001978FFF7A3FF0300002E03D0EA7B002A5B
:1019D00027D1EC73002B37D1002C49D02B7B9C42B4
:1019E00046D82A6863001C19033C1419002363704D
:1019F00070BD224B224A3821224800F045F9224B83
:101A0000224A6921224800F03FF9224B1C4A3A2120
:101A10001C4800F039F9204B194A3B21194800F0C5
:101A200033F9002A0AD0297B8A4207D851008A1844
:101A3000033A29688C4662445470CAE7124B134A31
:101A40006921134800F020F9002B0BD02A7B934228
:101A500008D843001B18033B2A68944663440022BD
:101A60009A70B9E7084B094A6921094800F00CF956
:101A7000054B064A6921064800F006F90C7D001066
:101A8000B87C0010147D0010407A0010987C001083
:101A90005C7A0010507D0010787D001070B5040055
:101AA0000A00457B2900FFF775FF6073280070BDB1
:101AB00010B5040000296AD0437B99420ED000295A
:101AC00011D0037B99420ED84B005B18033B026890
:101AD000D0188378002B0CD1002059E00121FFF7AA
:101AE000DDFF012054E02B4B2B4A69212B4800F0ED
:101AF000CBF8002B1AD0227B934217D85A00D31868
:101B0000033B2268D2181378994215D0002B16D0C7
:101B1000227B934213D85A00D318033B2268D21871
:101B20005378994211D0002BF0D111E0194B1A4A89
:101B300069211A4800F0A8F8437813700AE0154BA1
:101B4000154A6921154800F09FF843785370012326
:101B5000002B10D000238370437001222000FFF778
:101B600019FF0200617B88420BD02000FFF76EFE58
:101B7000607301200CE00A4B0A4A67210A4800F012
:101B800083F80A4B074A6D21074800F07DF80020D2
:101B900010BDC046407A0010987C00105C7A00109E
:101BA000E47C0010CC7C0010147D0010EC7C001054
:101BB00070B5234A234B1A60234A244B1A60244BE6
:101BC0009A68214B9343FAD1224C01E008CC984704
:101BD000214B9C42FAD300F001F9204A1B4B1A60BA
:101BE0001B4B9B68DB43DB01FAD11D4B40229A67FC
:101BF0005A671A67DA661B4C03E02000FFF7B6FD50
:101C00000834194B9C42F8D3184CA168184DC022D7
:101C1000280002F0BDFCA560FEF725FB002800D0DF
:101C200000BEFEF733FF00F063FCFFF791FA114CA2
:101C300001E008CC9847104B9C42FAD370BDC046D7
:101C4000BFCDFFFF00E00040FE7F3C0000F0004001
:101C500000C00040FC0300200C040020FFFFFF0137
:101C600000F00140F4030020FC03002000ED00E040
:101C7000000000200C0400201004002000BEFDE73E
:101C800010B5FFF7FBFF000010B582B00C00190083
:101C9000002A0CD0084B002A0BD00192009323009D
:101CA0000200064802F0A6FD0120FFF7E7FF044B03
:101CB000F1E7034AF1E7C0469C7D0010AC7D0010BF
:101CC000147600100FB400B583B0084802F062FD2E
:101CD000049B002B07D005A90191180002F068FDB4
:101CE000034802F057FD0120FFF7C8FFDC7D00101C
:101CF00038760010F8B5D6464F4680B506000F007E
:101D00009146089A934243D3190E1802089A002369
:101D100001F016FD050073009B199C002A4B9C46A0
:101D200064446368834200D26060331FDBB29A462A
:101D3000012B33D9C0239B012343802212011A6057
:101D4000B300224A9958002905D0506901F0B2FC2D
:101D500001300138FDD14B465B0122685340E0223F
:101D6000134080225201224313605346012B20D995
:101D700080239B012343802212011A606560B60014
:101D8000124B089AF25001200CBC91469A46F8BDBD
:101D90000F4B104A2E211048FFF776FF012FC9D1B3
:101DA000C0239B01234303221A60A368DB07FCD5F1
:101DB000D1E72168794003230B401360A268012317
:101DC000BB401342FAD0D3E700800040CC0800208B
:101DD000FC7D0010EC7D0010107E001030B583B04B
:101DE0000C2000F093F8FEF77FFE00280DD00023B2
:101DF00004E099003348344A88500133092BF8D95C
:101E0000324A314B5A6203B030BD0022304B9A67E0
:101E100000F0E4F801222F4B1A602D4B5B6C012B74
:101E2000FBD103222C4B1A60294B9B6B012BFBD15E
:101E3000C0239B01294A1360294A1360294B9A68E1
:101E4000C0239B019343F9D1022400940633264A10
:101E50000121264800F0D6F800940523244A0121E8
:101E6000244800F0CFF8244B0093002202210420E4
:101E7000FFF740FF214D00952B0000220121052096
:101E8000FFF738FF0F4C00942300002200210720A9
:101E9000FFF730FF00942300002200210820FFF705
:101EA00029FF0A4B00932300002200210920FFF79D
:101EB00021FF00952B00002200210620FFF71AFFCA
:101EC000A1E7C046006CDC02CC0800201BB7000074
:101ED000008000403CB0004030B0004000E00040D6
:101EE00000F0004000C00040002F68590080024010
:101EF00000389C1C00C00240001BB700405973070B
:101F00008000014BC0587047CC08002080239B0004
:101F10001843014BD862704700800540024B1A6895
:101F2000024B5A607047C046E80F00200080054011
:101F300010B58022D205124B1A60124A124B1A6059
:101F4000002918D0E022D204104B1A60002800D1DA
:101F50003230FA23DB0058430D4B18600D4B98428A
:101F600002D91A000A4B1A60FFF7D8FF8022D20567
:101F7000064B1A6010BDE022D204014B1A60E5E75F
:101F800000B00540FCFF01000820014000A0054012
:101F9000E80F0020FFFFFF0010B58024E4050B4B85
:101FA0001C60002807D10021094BD96100211000D5
:101FB000FFF7BEFF10BD012303430548054CC46174
:101FC000054C5C40046241628362EFE700B005406B
:101FD00000800540D3C007B02D3FF84F064BAA2222
:101FE00012011A602F22DA60044A054B1A60024B74
:101FF0005B68002BFBDA70470040024000B0FA003B
:1020000000600240F0B583B0040016001D000123FB
:102010005B4243600023836001910C2001F04AFB86
:102020000700019B236021494143300001F042FB3E
:102030000200103A98235B009A421FD86B1E062BB1
:1020400022D8089B013B062B1ED8089B9D4221D31A
:102050003609B74224D8A060231DC02292011A433A
:10206000212313602368002BFCDA2B0408990D034D
:102070001D43E5600823136003B0F0BD0C4B0D4A0F
:102080001A210D48FFF700FE0C4B0A4A1D210A4891
:10209000FFF7FAFD0A4B074A23210748FFF7F4FD33
:1020A000084B044A27210448FFF7EEFD40420F0089
:1020B000607E0010547E00107C7E0010BC7E0010FC
:1020C000087F0010207F0010074B9B6810308000B5
:1020D0001950BFF35F8FBFF35F8F0021034B19606F
:1020E00082F310887047C04600ED00E0240100D064
:1020F00010B5091A04394808090B05D14005400DEF
:10210000044B184380B210BD034B044A8C21044891
:10211000FFF7BAFD00E0FFFF30810010587F00108C
:102120004081001010B5091A04394C08090B08D178
:102130004905490D064A11430180064B234343805C
:1021400010BD054B054A94210548FFF79DFDC0468B
:1021500000F0FFFF00F8FFFF30810010647F0010E7
:102160004081001001238340034A10681840431E39
:102170009841C0B27047C04600E100E0002902D19A
:10218000034B18607047034B1860034B1860F9E766
:1021900080E100E080E200E000E100E010B5012312
:1021A00083401800FFF7EAFF10BD000001238340C1
:1021B000014A13607047C04600E200E0024B9B6892
:1021C00010308000C058704700ED00E070B504008A
:1021D0000D00EFF3108672B60C4B1B68002BFBD082
:1021E000BFF35F8F2000FFF7E9FF094B984201D052
:1021F000A84205D1320029002000FFF765FF70BD1D
:10220000044B054A70210548FFF73EFD240100D02C
:10221000CD010010F88000103C7F001040810010BC
:10222000F0B5CE4600B582B005000F00EFF310897F
:1022300072B6584B1B68002BFBD0BFF35F8F564B19
:102240009A682C001034A300D658544B9E4200D1FB
:102250009CE0BE4200D19BE00096514BF31A2F2B1D
:1022600008D94A4631002800FFF72EFF02B004BC0F
:102270009146F0BD2800FFF775FF0190002128006E
:10228000FFF78CFFBFF35F8FFDF7EDFF011E01D05D
:1022900084421AD10123009C9C432200404BD21A55
:1022A0005241494B53431B0D5BB29C460023A0682F
:1022B000874212D00622A256002A0DDB53009B183B
:1022C0009A002300364CA418F1E7364B364A2021F9
:1022D000FF313648FFF7D8FC230087424FD106274D
:1022E000E757002F36DB7A00D21991002C4B5B1890
:1022F0009A68A260DA79E27106229A56A2719B79F5
:102300005BB2002B23DB201D254A8B181A1D9B88EE
:10231000D90A1C2915D1590549150231490051180E
:10232000FFF7E6FEA0807B00DB199A001C4B9B1890
:102330001F4A11789971177001992800FFF72EFF35
:102340008FE71C4B1C4A9A211848FFF79DFCBD20C3
:102350000002E7E700290DD1002B09D0FF229A7176
:10236000164A9A80124B1A78A27162461A70E3E7F5
:102370000A4EF7E7201D1249FFF7D4FEDCE7114BA8
:10238000094AAA2149000948FFF77EFC034E68E785
:10239000024E66E7240100D000ED00E0CD01001000
:1023A00044030020CC8000108C7F0010408100107E
:1023B00082100020808000107C7F001000BDFFFF95
:1023C0007E030020F0800010AAAA000010B50323AD
:1023D00004009C43064A9446644422681840C000A6
:1023E000FC3383409A4381401143216010BDC046B5
:1023F00000E400E0F8B5040001260643304BF31A70
:102400002F2B28D8FDF72FFF00282BD0EFF31085B6
:1024100072B62C4B1B68002BFBD0BFF35F8F2300E1
:1024200027495B1A5B4131495943090D49B2264B93
:102430009B6880001B589E421BD00023032B28D88A
:102440005A00D21890001E4A1218927952B28A424B
:1024500014D00133F2E71D4B1D4A7221FF311D4894
:10246000FFF712FC1C4B1A4ABA2149001948FFF722
:102470000BFC154B9B68194A1A500DE010485A0086
:10248000D718BE008619FF27B771154BB3800123FB
:1024900000E00023002B0BD0124B1A78A2711970A8
:1024A000BFF35F8F0022074B1A6085F31088F8BDD9
:1024B0000D4B074A8621FF310648FFF7E5FBC04672
:1024C00044030020240100D000ED00E098800010BB
:1024D000A07F001040810010C0800010CD010010CE
:1024E00000BDFFFF82100020E47C0010AAAA0000BB
:1024F00010B5002404E080212000FFF767FF0134BD
:102500001F2CF8D910BD704710B5002800D110BDA0
:102510000B6849689847FAE710B50400002307E004
:102520009800C31858004B1C23600B781B18303BD5
:1025300021680A78303AD2B2092AF1D9180010BDC0
:10254000F0B5D6464F464646C0B582B0050000916C
:1025500001930A9B99460B9C0C9B98460D9B9B07ED
:1025600017D04B4691461E0022E0541C019B009957
:102570002020B04701372200AF42F6D354460C95D5
:10258000350046460C9B98464B460A93B1461E00C2
:102590000EE02700A24643460C93904606001D001D
:1025A000EAE7013C571C305D019B0099A8473A00BF
:1025B000002CF6D14E460D9B9B070BD52C004746B1
:1025C00005E0551C019B00992020A0472A00931B81
:1025D0009F42F6D8100002B01CBC90469946A24615
:1025E000F0BDF0B5CE4600B586B0049205930C9DC3
:1025F0000D9C0EAE33789946109A119B129EB70728
:102600001CD4002B0CD0F7070AD54F46002F02D15F
:102610000C37374204D0013B02E030272F550134FC
:10262000944205D21F2CF8D902E030272F550134EF
:10263000F70703D59C4201D21F2CF6D9F70615D512
:10264000770505D4002C03D094421CD09C421AD0AC
:102650000F9A102A23D00F9A102A28D00F9A022AF4
:102660002DD01F2C02D830272F5501341F2C2FD8E6
:102670004A46002A29D1720736D4320728D52027A6
:102680002F55013424E0671E002F06D00F9A102A20
:1026900001D03C00DCE7023CDAE73C00D8E7B206B8
:1026A000D9D41F2CD7D878272F550134D9E7B206B3
:1026B000D4D51F2CD2D858272F550134D1E71F2C41
:1026C000CFD862272F550134CBE72D272F55013462
:1026D0000396029301940095059B049AFFF730FF3F
:1026E00006B004BC9146F0BD2B272F550134EFE70F
:1026F000F0B5C64600B594B0089009910A920B93C4
:102700001AAB10CB1B7898461F9D002C01D11023CB
:102710009D438027FF002F4015D0002C20D000279C
:1027200011E0AA061AD54121C918C9B20A39C9B29D
:102730000CABD9551C99200000F0BCFF041E10D032
:1027400037001F2E0DD81C99200000F0B3FFCBB22C
:102750007E1C092BE5D83033D9B2E9E76121E3E7E4
:10276000002606951E9B05931D9B04931C9B0393BB
:102770004346029301960CAB00930B9B0A9A09996E
:102780000898FFF72EFF14B004BC9046F0BDF0B5DA
:10279000DE46574680B599B00C900D910E920F937E
:1027A000209C219D22AB1B789B46249B0A93259B52
:1027B0000B93289B9A4623002B4303D11033524698
:1027C0009A4392468026F60053461E4006D02300C8
:1027D0002B432FD000265746099419E057460994F9
:1027E00016E0BA0621D54122D218D2B20A3AD2B2A4
:1027F00010AB9A550A9A0B9B0998290000F0A0FF8C
:1028000009900D000B00034316D026001F2C0ED894
:102810000A9A0B9B0998290000F092FFD3B2741C0E
:10282000092BDED83033DAB2E2E76122DCE7BA46C0
:10283000270003E0002701E0BA462700534606932D
:10284000279B0593269B04930A9B03935B46029365
:10285000019710AB00930F9B0E9A0D990C98FFF700
:10286000C0FE19B00CBC92469B46F0BDF0B5DE46EA
:1028700057464646C0B594B004000691150007932C
:102880001C9E08961D9F099732003B0030003900BE
:1028900001F0CDF9002800D0E9E001225242D04BEE
:1028A0003000390001F0BEF9002800D0DFE001223D
:1028B0005242CC4B3000390001F09EF9002800D084
:1028C000D5E0002200230898099901F095F9002825
:1028D00000D0E2E0089A099B0A920B938023DB0068
:1028E000209A1A409246131E01D106331E930A986D
:1028F0000B9902000B000C920D9303000A00024397
:1029000000D1D3E00A00100D4005400DB64EB4468C
:1029100060441203120B1E00B44B13431F0001F05E
:1029200099F9B34AB34B01F025F9B34AB34B01F01F
:102930000FF90C900D910022B14B3000390001F0DD
:10294000FEF8B04AB04B01F015F902000B000C98EC
:102950000D9901F0FDF801F095F9060001F07AF902
:10296000AA4AAB4B0C900D9101F004F90022A94B3F
:1029700001F0EEF801F086F90700A74AA74B0C9882
:102980000D9901F0F7F80C900D91380001F062F903
:10299000A34AA44B01F0EEF802000B000C980D992D
:1029A00001F0CDF802000B000E900F9101F0E2F85B
:1029B000109011919C4BFB181B050D9300230C9359
:1029C0000E980F9902000B0001F0C2F812901391BB
:1029D0000E9A0F9B00208021C90501F0B0F80E90DF
:1029E0000F910022914B1098119901F0BAF8002232
:1029F0008F4B01F0ADF802000B001098119901F017
:102A0000B0F800228B4B01F0A3F802000B001098E5
:102A1000119901F0A6F802000B000E980F9901F031
:102A200097F802000B001298139901F09AF800220F
:102A30006E4B01F08DF80C9A0D9B01F09BF8020093
:102A40000B000C920D930E900F9102000B000A9850
:102A50000B9901F0D1F8002829D0013E0022744BD7
:102A60000E980F9901F07DF80C900D911FE0209BBE
:102A700004931F9B03931E9B0293089A099B009249
:102A80000193079B2A000699200000F0F7F814B084
:102A90001CBC90469A46A346F0BD089B0A93099B2E
:102AA00080221206944663440B9317E700263300F6
:102AB0006333C62B2BD80427209B1B0521D50C9AEA
:102AC0000D9B190011430FD05B4A5C4B0A980B9980
:102AD00001F0A0F800281FD00022594B0A980B994A
:102AE00001F08AF8002817D01E9B9E4211DA9E1B27
:102AF000731E1E938023DB00209A1A432092002726
:102B000000261F9B9F4211D2DB1B9B4610E005272E
:102B1000D2E700231E93EDE71E9B002BF1D0534616
:102B2000002BEED01E9B013B1E93EAE700239B4641
:102B30000223209A1A40924603D0002F01D000238E
:102B40009B46002E07D00C9A0D9B0A980B9901F01A
:102B500008F80A900B91002200230898099901F0C7
:102B60004BF8002870D1374B209A134004935B46F2
:102B700003931E9B02930A9A0B9B00920193079B5F
:102B80002A000699200000F079F8002F00D17EE796
:102B9000209B9B0663D545230893431C9846079BBF
:102BA000020006990898A047F217B1185140F30F98
:102BB0007A1E052005900492002203920A320292A6
:102BC00001930091079B424606992000FFF790FD74
:102BD0005346002B00D15AE702001F9E48E0C04632
:102BE000FFFFEF7FFFFFEFFF01FCFFFF0000F03F63
:102BF000FB799F501344D33FB3C8608B288AC63FEC
:102C00000000F83F61436F63A787D23F71A3790942
:102C10004F930A400000E03F1655B5BBB16B024030
:102C2000EF39FAFE422EE63FFF03000000002C4081
:102C300000002440000018402D431CEBE2361A3FF0
:102C400080842E41FFF7FFFF0A990A000B9980202C
:102C50000006844661440B000A920B9383E76523C8
:102C600008939AE7571C079B06992020A0473A0033
:102C7000531B9E42F6D8100009E7C046F0B5D64671
:102C8000474680B597B00690079108920993209F18
:102C90001E9A1F9B1000190000F0C9FF00282AD1BE
:102CA00001225242BA4B1E981F9900F0A5FF00283E
:102CB00030D101225242B74B1E981F9900F0B2FF4B
:102CC00000283AD00423229A134032D0B24A002B73
:102CD00031D103232299039121990291019300920A
:102CE000099B089A07990698FFF72AFC17B00CBCB5
:102CF00090469A46F0BD229B0393219B02930323A7
:102D00000193A64B0093099B089A07990698FFF731
:102D100017FCEBE7229B0393219B0293042301936F
:102D20009F4B0093099B089A07990698FFF708FCA8
:102D3000DCE79C4ACBE70423CCE700229A4B1E98A1
:102D40001F9900F06FFF002817D10022974B1E98A3
:102D50001F9900F051FF00280FD1002200231E9878
:102D60001F9900F049FF002817D100239A46229BA3
:102D70005B0500D4062700261FE0229B0493219BBD
:102D8000039302971E9B1F9C00930194099B089A32
:102D900007990698FFF76AFDA8E71E9A1F9B002077
:102DA000002100F0CCFE1E901F9101239A46DEE721
:102DB00030220EAB9A55013F01361F2E01D8092F44
:102DC000F6D81E981F9900F05DFF040000F042FF46
:102DD00002000B001E981F9900F0B1FEFA00744B20
:102DE0009B181A685B680C920D9300F0C3FE0A9062
:102DF0000B9100F06BFF050000F028FF02000B00B4
:102E00000A980B9900F09BFE0A900B910022694BE7
:102E100000F008FF00282CD00135280000F016FF34
:102E200002000B000C980D9900F0ECFE002801D078
:102E300001340025002F2AD1200000F00BFF0200F2
:102E40000B001E981F9900F07AFE0022594B0A9041
:102E50000B9100F0D1FE002843D10022554B0A9877
:102E60000B9900F0DFFE00283BD1E30739D5013490
:102E700037E000224F4B0A980B9900F0BDFE002866
:102E8000D8D1002D01D0EB07D4D50135D2E70A9473
:102E90001F2E10D8013F741C0A21280000F00AFCE4
:102EA00030310EAB99550A21280000F003FC051EB5
:102EB00003D02600ECE70A9C08E0A0460A9C4646A0
:102EC00004E030210EAA91551F0001361F2E02D8B2
:102ED0007B1E002FF5D11F2E03D82E220EAB9A5544
:102EE00001361F2E10D8751C0A21200000F0B6FBF9
:102EF00030310EAB99550A21200000F0AFFB041EC3
:102F000001D02E00EDE72E000323229A1340012B5F
:102F100016D01F2E06D85346002B28D02D220EABDC
:102F20009A550136229B0393219B029301960EAB87
:102F30000093099B089A07990698FFF701FBD5E6CD
:102F4000219B002B0DD05346002B02D10C33134292
:102F500007D0219B013B219303E030220EAB9A5511
:102F60000136219B9E42D4D21F2EF6D9D1E7229B57
:102F70005B0704D52B220EAB9A550136D2E7229B74
:102F80001B07CFD520220EAB9A550136CAE7C046A3
:102F9000FFFFEFFFFFFFEF7F608300106C830010E7
:102FA000708300106883001065CDCD4165CDCDC123
:102FB000788300100000E03FF0B5DE4657464E46ED
:102FC0004546E0B593B083460B910A9211930029D0
:102FD00012D000275E46119B1878002800D1E5E248
:102FE00025280CD07C1C0A9B3A000B99B047119BFA
:102FF000013311932700EEE7CD4B9B46E9E7013300
:103000001193002506E001231D4301321192012492
:10301000002C23D0119A1378203BD9B210291BD849
:103020008B00C449CB589F4602231D4301321192A5
:103030000124EDE704231D43013211920124E7E747
:1030400008231D43013211920124E1E710231D439F
:10305000013211920124DBE70024D9E7119B1A7891
:103060001300303BDBB2092B10D92A2A13D0A34618
:10307000119B1A782E2A1ED0119A1378683BD9B268
:10308000122959D88B00AC49CB589F4611A8FFF79D
:1030900043FA8346ECE71C9B1A1D1C921B68002B0D
:1030A00004DB9B46119B01331193E1E70222154398
:1030B0005B429B46F6E78022D20015435A1C1192D0
:1030C0005A781300303BDBB2092B0BD92A2AD3D113
:1030D0001C9B1A1D1C921C68002C08DB119B0133E1
:1030E0001193C9E711A8FFF717FA0400C4E70024F9
:1030F000F4E780235B002B43511C119152786C2A1A
:1031000001D01D0018E0C0239B001D430131119127
:1031100012E080232B43511C11915278682A01D070
:103120001D0009E0C0231D430131119104E08023FB
:103130005B001D4301321192119B18780300253B5F
:10314000DAB2532A00D927E293007C4AD3589F462B
:1031500080239B001D4301321192EDE780235B0029
:103160001D4301321192E7E778280AD0582840D051
:103170006F2841D0622842D010239D43063B9C46D5
:1031800001E010239C4658283CD0692803D06428CD
:1031900001D00C2295436B0501D501229543692886
:1031A00033D0642831D0AB0500D5A4E0EB0500D5C1
:1031B000C6E06B0600D5D8E02B0600D4DCE01C9AF4
:1031C000111D1C9112681204120C05955B460493A4
:1031D0000394634602930023019300920A9B3A00F2
:1031E0000B993000FFF784FA0700119B013311930C
:1031F000F1E610239C46C6E708239C46C3E702235A
:103200009C46C0E720221543BFE7AB051ED4EB0563
:103210004DD46B0663D42B0668D51C9A111D1C91E6
:103220000023D25ED317D1185940D20F05955B46C3
:103230000493039463460293019200910A9B3A001F
:103240000B993000FFF754FA0700CEE71C9BDA1DFC
:1032500007218A43110008311C9111685368984670
:10326000DB170E930F930E9A0F9B100048400C90A3
:103270001900404641400D910C980D99801A9941D2
:103280000C900D914346DA0F08955B460793069420
:1032900063460493002305930292009001910A9BD8
:1032A0003A000B993000FFF772FA07009DE71C9A6D
:1032B000111D1C911268D317D1185940D20F0595D2
:1032C0005B460493039463460293019200910A9B28
:1032D0003A000B993000FFF70BFA070085E71C9ABC
:1032E000111D1C911168FF220A409BE71C9A111DB9
:1032F0001C91126896E71C9BDA1D07218A43110076
:1033000008311C91536812680092019300220895BD
:103310005B460793069463460493059202920A9BC8
:103320003A000B993000FFF732FA07005DE7C0461C
:103330000725001080810010C48100101082001049
:103340001C9A111D1C911368009305955B4604930C
:10335000039463460293002301930A9B3A000B995E
:103360003000FFF7C5F907003FE71C9A111D1C91BB
:103370001168FF220A4028E71C9A111D1C9112684F
:1033800023E7462819D01C9B0733072293431A00D2
:1033900008321C921A685B680092019304955B46A0
:1033A000039302940A9B3A000B993000FFF766FCE6
:1033B0000700119B013311930DE620231D43E2E723
:1033C00067281FD047281DD045281FD047281DD06B
:1033D0001C9B0733072293431A0008321C921A6879
:1033E0005B680092019304955B46039302940A9BE9
:1033F0003A000B993000FFF739FA0700119B0133AF
:103400001193E8E580231B011D43DDE720231D43C5
:10341000DEE702232B409A461ED001251C9B1A1D75
:103420001C927C1C18780A9B3A000B99B0475346B3
:10343000002B22D1119B013311932700CBE5541CA3
:103440000A9B0B992020B0472B0022005D1C9F4255
:10345000F5D8BB461700E1E701233A005F46F5E7E0
:10346000571C0A9B0B992020C04725003A006C1C72
:10347000AE42F5D814004646DCE72200B0465E4670
:10348000F5E71C9B1A1D1C921B689846002C02D065
:103490002300414604E001235B42FAE701311300B7
:1034A0000A78002A02D05A1E002BF7D14346CB1AC5
:1034B0009A468023DB002B40994602D0A24500D9D2
:1034C000A24602232B40109315D03A004546B04641
:1034D0004E461CE0571C0A9B0B992020B0472B003E
:1034E0003A005D1C9C42F5D8A3465446AA46454680
:1034F000B0464E460BE03A005346A2465C46F0E723
:103500001C000135571C0A9B0B99C0473A002878CC
:10351000002804D0002EF4D0631E002CF0D1170038
:103520004646109B002B0FD1119B0133119352E59E
:10353000551C0A9B0B992020B04723002A005C1CD5
:103540009F42F5D81700EFE75F465346F7E7212380
:103550002B431C9A111D1C9112680092059308239D
:103560000493039408330293002301930A9B3A00C7
:103570000B993000FFF7BCF80700119B0133119342
:1035800029E57C1C0A9B3A000B992520B047119B2A
:103590000133119327001EE57C1C0A9B3A000B990E
:1035A000B047119B01331193270014E5B3460A9AE3
:1035B00097420CD3013A0A9B0B990020D847380058
:1035C00013B03CBC90469946A246AB46F0BD3A00CB
:1035D000F1E7C04600B585B0029003910093130057
:1035E0000122524202A90248FFF7E6FC05B000BDE5
:1035F0000925001001480421014B184790030020C1
:103600002536001010B5010018231B8814221088DD
:10361000984710BD10B5010018231B88162210888A
:10362000984710BDF0B5C64600B507000E0000254E
:103630000123984600E00135B5420AD2AC003C199E
:103640002068FFF7DFFF20600028F4D100239846B0
:10365000F1E7404604BC9046F0BD0000144A936F69
:103660009B0815D29066D166002905D0FFE7FFE7D9
:10367000FFE7516F106F704704B580210906C2172C
:103680005140002800D0C84303F05EFF002104BD74
:10369000936F5B08FDD3F0B5946ED56E576F166FC0
:1036A000FFF7E0FF9466D56657671667F0BD000028
:1036B000000000D0134A936F9B0813D21066516626
:1036C000002905D0FFE7FFE7FFE7516F106F704754
:1036D00004B5002801D00020C04303F035FF0021CD
:1036E00004BDC046936F5B08FDD3F0B5946ED56EF4
:1036F000576F166FFFF7E2FF9466D5665767166738
:10370000F0BD0000000000D094464E4A926F92082F
:10371000624601D230E0C046F0B54A4EB56F6D0842
:10372000FCD3346E756E776F366F00F025F89446D3
:10373000444A14665566576716676246F0BDC04630
:103740009446404A926F9208624601D258E0C046C1
:10375000F0B53C4EB56F6D08FCD3346E756E776F67
:10376000366F00F04DF89446364A14665566576732
:1037700016676246F0BDC046002B24DB11D000293D
:103780003EDA00B5C943404200D1013100F038F8BB
:10379000C943404200D10131DB43524200D10133E1
:1037A00000BD002AEBD1002801D1002905D000205E
:1037B000C90FC90701D1C043410800B503F0BCFEE1
:1037C0000022002300BD00B500290ADBDB43524282
:1037D00000D1013300F014F8C943404200D1013157
:1037E00000BDC943404200D10131DB43524200D108
:1037F000013300F005F8DB43524200D1013300BD34
:10380000002923D1002B18D1002A0CD0BC460D4F23
:1038100038667A6600210023FFE7FFE7FFE77A6F4B
:10382000386F67467047002801D00748010000B58F
:1038300003F082FE0022002300BD02000B000020E6
:1038400000217047000000D0FFFFFFFF002B00D0D9
:10385000BDE0130C26D1002AE7D080B4104F3966A2
:103860007A66FFE7FFE730B4040C7B6F396F1B0407
:1038700023433B66FFE7FFE7FFE7C04684B27B6F69
:103880003D6F1B0423433B66FFE7FFE7C046002371
:103890002C042D0C7A6F386F00196941B0BC704749
:1038A000000000D0F0B594460025140E01D112029C
:1038B0000835140F01D112010435940F01D1920083
:1038C0000235D40F01D152000135D40B0134254FFC
:1038D0007C66254C3C660E0C93B2FFE7FFE7FFE7E2
:1038E0003C6F6643360C7703BE467343DF0B5B04C5
:1038F000C01AB941130C7343DB18C91ACE086643CA
:10390000360CB64493B273431F0F1B01C01AB94162
:10391000130C73431F0B1B05C01AB941860D8F0290
:103920003E436643360C092D24DB520A7243801A4B
:103930007703460A6643360C16235B1BDE40DF40E6
:10394000BF1964466643821B704604350633010086
:10395000D940A840C01900D30131A24206D20023A9
:10396000F0BD0000000000D0FFFFFFFF121B013080
:10397000F3D3F1E709277F1BFE406446A2B27243EE
:10398000801A00D20139220C7243130C1204821ADD
:1039900099410B007046043513370100F940A840E7
:1039A000801900D30131002B02D1A2420AD2F0BD0E
:1039B000013000D30131121BFAD2013BF8D1A242EF
:1039C00000D2F0BD013000D30131121BF7E7F0B592
:1039D0001C0C00D080E00CB400251C0A04D11B0292
:1039E000160E3343120208351C0B04D11B01160FAF
:1039F0003343120104359C0B04D19B00960F3343D3
:103A000092000235DC0B02D192185B4101351C009B
:103A1000971864410134464F7C66464C3C660E0C58
:103A2000FFE7FFE7FFE7C0463C6F6643360C7703CE
:103A3000BE4697B27743C01B00D20139C01B00D2EB
:103A400001399FB27743C91BC91B170C77437E040A
:103A5000FF0B801BB941CE086643360C0C2D33DBBF
:103A6000B644120B1F053A431B0B97B27743C01B9A
:103A700000D201399FB27743C91B170C77433E042C
:103A80003F0C801BB941860D8F023E4366432927B8
:103A90007F1BFE400C3D7746AF40BF1930BCA2B241
:103AA000ABB272437343801A9941220C7243130CD8
:103AB0001204801A994102000B000137001BA94132
:103AC000F9D2781E0021F0BD0C277F1BFE407746FF
:103AD0007F0BAF40FF19E0E700245D1C07D0144FB7
:103AE0007D663966FFE7FFE7FFE7FFE73C6F95B2CA
:103AF0009EB265436643401BB141150C1E0C6543E5
:103B0000664336042F0C3E432D04401BB1419942BD
:103B100004D202000B0020000021F0BD01D1904230
:103B2000F7D3801A994101349942F2D3F6E70000A5
:103B3000000000D0FFFFFFFF48404140484018B45C
:103B4000114B5B68FC46019308BD04DFD73D0010B4
:103B500018B40D4B1B68FC46019308BD00DFE13D26
:103B6000001018B4084BDB68FC46019308BD0CDF5D
:103B70009940001018B4044B9B68FC46019308BDA3
:103B800008DF3D3F001000008C100020FFB55040C2
:103B90004240504059404B40594000E0FFB5154F5E
:103BA0004C00640D03D0BC4204D10C0314D8002097
:103BB000090D09055C00640D03D0BC4204D11C034F
:103BC0000AD800221B0D1B0501264B4009D44B408F
:103BD00003D58B4200D18242FFBD9942FCD1904275
:103BE000FFBD0B43DB1803431343F5D0C94349180A
:103BF000FFBD0000FF07000000B5FFF7CFFF8041C9
:103C000000BDC04600B5FFF7C9FF01D9002000BDC7
:103C1000012000BD00B5FFF7B9FF01D9002000BDAC
:103C2000012000BD00B5FFF7B1FF804100BD0120BC
:103C300040054A00121804D85A00121801D8002072
:103C400070470120704700207047000000210028C5
:103C500005D17047C1174840401AFAD0C90713B5BB
:103C6000064B1B6898470CBC441CA2401005120B65
:103C70000349091B09051943114310BD8C1200208B
:103C80001F04000010B54C00620D8023D218DB0029
:103C9000D21A5B057E2A10DD9E3A13DACC1709038F
:103CA000490819435242D140640001341532202A98
:103CB00005DAD0400843604310BD002010BD08461F
:103CC000604310BDC80FC018013810BD18B4044BB4
:103CD0005B6AFC46019308BD24DFC542001000006A
:103CE0008C10002070B513231C78012C22D0012CDD
:103CF00012DD1E48FFF78EFC05001D48FFF78AFC09
:103D0000023803789B007F2B16DD8022290019489A
:103D100000F03EFC022C15D0022C02DC154B164A9A
:103D20009A6470BD9900134A1348885001331F2BC1
:103D3000F8D9DCE70023FAE7104B114A302111488B
:103D4000FDF7A2FF104B1A88B5231B029A4209D136
:103D50000E4B1A880E4B9A4204D10E4B1A880E4B0A
:103D60009A42D9D00020FDF7ADFFC0465344000071
:103D7000534600008C1000209D3D0010C8830010A9
:103D8000748400102884001054380000D8380000D3
:103D9000494600009C3800005946000007B56046BF
:103DA000002800D100BE01880A0A0230DF2AFAD1B9
:103DB000C9B2820804D3028840880004104300E09E
:103DC0000068024A5050039007BD00008C1000208C
:103DD0000FB403BC0CBCF0B50124E407634000E061
:103DE000F0B50C0DCF0F661E3605891B640503D395
:103DF000C943404200D30131640D03D0661CF60A6A
:103E000007D0E41B00207F00791C89078912803CC1
:103E100024031D0DDF0F6E1E36059B1B6D0503D39E
:103E2000DB43524200D301336D0D03D06E1CF60A02
:103E300007D0ED1B00227F007B1C9B079B12803D5F
:103E40002D032F1B661B58D4A446202E46DA20379C
:103E50001400BC401D00BD40F24033412A4380188D
:103E60005941CB0F05D0C943C043002264425041A1
:103E7000514162464D0D28D10D0D07D100281FD0AC
:103E8000241940414941013A0D0DF9D0640006D38F
:103E9000013000D30131002C01D140084000013A2B
:103EA0000BD4941CE40A04D112051144DB07194415
:103EB000F0BDD907204B194300E0D9070020F0BD21
:103EC0000029DDD1002CDBD1F0BD0132C60740084E
:103ED000CD0728434908002EE1D0D9E73C2E29DA46
:103EE000203E40371400BC4000D00124F24014436F
:103EF0001A00BB401C43D317ACE7AC46202F08DAAE
:103F000020360400B4400D00B540F8403941284344
:103F1000A5E73C2F0CDA203F40360400B44000D027
:103F20000124F84004430800B1400C43C117EAE7FC
:103F300010001900002494E70000F07FF0B50C0D8C
:103F4000661E3605891BE60A6405640D02D0651CF1
:103F5000ED0A04D0002001210905803C2403A44679
:103F60001C0D671E3F05DB1BE70A6405640D02D0CC
:103F7000651CED0A04D0002201231B05803C2403AC
:103F80007740644497B484B296B27443070C7E437E
:103F9000150C6F4380B26843361802D30120000429
:103FA0003F183004350C00197D41844688B29AB21E
:103FB00050430C0C62431F0C7C438EB27E4392191B
:103FC00002D301263604A4191604170C36186741CB
:103FD00001BC81B29AB25143040C62431B0C5C4396
:103FE00080B25843121802D3012000042418100490
:103FF000130C401863412D185E410020474106BC58
:1040000088B293B258430C0C6343120C544389B2E8
:1040100051435B1802D301210904641819041A0CD6
:10402000091862416D1856410020474118BCF90239
:10403000720D1143F0026A0D1043ED020A0D03D117
:104040006D1940414941013B124E9B1B7600B34222
:104050000ED26D0007D3013000267141664635430C
:1040600001D1400840001B05C918E4072144F0BDF8
:104070000BDA013306D1013004D101314F0D01D0EB
:104080004908F2E7E1070020F0BD013631050020C4
:10409000EBE70000FF030000F0B51C0D671E3F05B5
:1040A000DB1BE70A6405640D02D0661CF60A04D027
:1040B000002201231B05803C2403D0252D06002669
:1040C000F6432E661E096E66CE0FF619B4464900F9
:1040D0004F0D02D07E1CF60A03D000200021403F85
:1040E0003F033E1BB600B444013F7F05C91B49088E
:1040F0002E6F013676089C02950D25437543ED130E
:104100007543AD1301356D10F603761B0CB4CC026C
:10411000450D2C43A2B2B3B25A43270C7B43350C56
:104120006F43A4B26C431B1902D3012424043F192A
:104130001C041D0CA4187D4124196D41009A91B2F4
:10414000ACB26143170C7C432B0C5F4392B25A43D1
:10415000A41802D301221204BF182204230C5218FF
:104160007B41019C6C431B19520ED9010A43440147
:10417000A01A81B2B2B2514303145A43360C7343AE
:1041800087B27743D617D21900277E4136049B1990
:104190001704160C7F185E417316ED18F301002604
:1041A00080337541A90F06D16400690AE8055B0AEE
:1041B000184309D22FE00422944480337541A90AA0
:1041C000A8059B0A184326D3404149412404009A7C
:1041D000019B0D005543641B4343E41A95B286B21C
:1041E0007543170C7E43030C5F4392B25A43B618D3
:1041F00002D301221204BF183204330C52197B413E
:1042000052429C41002C02D400220130514140080E
:10421000CA071043490802B06246D7079210084BFC
:10422000D218084B9A4203D212058918C919F0BD59
:104230000020002A01DC3900F0BD01331905F5E743
:10424000FD030000FE070000624618CA94460029DC
:104250001ADAC01861415B463B415C46B4405246A5
:10426000FA40224344464D4662416B41904699468E
:104270002B46B3403D41FC401C4352465B46A241A5
:10428000AB4192469B467047C01AA1414B463B4109
:104290004C46B4404246FA40224354465D46624191
:1042A0006B4192469B462B46B3403D41FC401C432C
:1042B00042464B46A241AB4190469946704700208A
:1042C00000217047002200B5203200F004F80800F9
:1042D00000BD000000220B15F1D410B5944600F08B
:1042E0002FF81414013400DA0021CB17134C2047A7
:1042F0006244343A0CD40C2A07DA0400914090400E
:1043000052422032D440214310BDD843D94310BD7E
:10431000203207D40C469440524220321141D04002
:10432000204310BD0800C917203203D45242203266
:10433000104110BD1800190010BD0000F14200101E
:104340000A0DCC0F531E1B05C91A520503D3C943CE
:10435000404200D30131520D03D0531CDB0A07D079
:10436000121B00206400611C89078912803A120325
:10437000014BD21A70470000FF0300005143434332
:10438000C9188C46110C83B24B4310B4040C614322
:1043900092B280B2504362431C041B0C001910BC43
:1043A00059411304120CC018514161447047000078
:1043B00048404140484000239C46094B5B681847F1
:1043C00000239C46064B1B68184700239C46044B61
:1043D000DB68184700239C46014B9B681847000088
:1043E0008C110020491A002808D1084670470000A7
:1043F000C10FC90700D54042002817D0F44603B4C6
:104400000B4B1B68984706BC81409E384042803168
:1044100007D20B0607D04900490AC00510430843DC
:1044200060470130F8E7490A8902F5E77047000064
:104430008C12002000239C46014B5B6A1847000049
:104440008C11002070B513231D782A48FFF7E2F87D
:104450000400012D11D0012D09DDA31E1B789B0046
:104460007F2B40DD80222100234800F091F8234873
:10447000FFF7C8F8224B186070BD542201001E4897
:1044800000F086F81F4B1A881F4B9A421CD1A723B5
:104490009B011A881D4B9A4216D11D4B1A881D4B41
:1044A0009A4211D11C4B1A8894239B019A420BD13A
:1044B0001A4B1A881A4B9A4206D11A4B1A681A4B91
:1044C0009A4201D1152307E01848FDF7FBFB99003C
:1044D000094A1748885001331F2BF8D9144A064B54
:1044E0001A62DA61B7E7134B134A42211348FDF70A
:1044F000CBFBC046534600008C1100204C3300001B
:104500008C120020EE290000C40F0000C20D000034
:10451000962B0000C0B50000182B0000CC2A00002C
:1045200010B50000FC2C000051ED876414760010DB
:10453000414500108884001004850010BC840010E0
:1045400007B56046002800D100BE01880A0A023083
:10455000DF2AFAD1C9B2820804D302884088000455
:10456000104300E00068024A5050039007BD00006D
:104570008C11002001480421014B1847A0030020A2
:1045800025360010014B1B6818470000A0030020CF
:10459000014B5B6818470000A0030020F8B5070036
:1045A0000D001600437C002B02D0002400200CE0FC
:1045B000036811002800984729E03B7C10E00221A5
:1045C00016483B689847601C0134B44214DA002C4A
:1045D000F3DD2B19013B1B780D3B59425941CBB2FE
:1045E0002A5D0A2AF0D1002BEED1A042E7DA211A87
:1045F00028183B689847E2E7B04209DB002E06DD49
:10460000AD19013D2B780D3B594259413974F8BD24
:10461000311A28183B689847F0E7C04678850010A3
:1046200070B505000368002B16D00C4B1C6805E024
:10463000291D2A682000FFF7B1FFE468002C09D08B
:104640002368002BF9D0064B1B68002BF0D09C424E
:10465000F3D1EDE700232B6070BDC0465C0900205C
:104660006409002070B505000C000B68802B05D094
:1046700023685A1C2260E418257170BD0800FFF7FA
:10468000CFFFF5E710B582B0D0231B061C6801A947
:10469000064802F061FF002806D1019B9C4203D02E
:1046A000024802F069FF012002B010BDF4030020AF
:1046B00010B5024802F038FF10BDC046F4030020D8
:1046C000F0B585B001900D001600FFF7DBFF070085
:1046D0006B1C02D0174B1C680CE0019802F0BCFE6A
:1046E0000500F7E72A0001992000FFF757FF002E89
:1046F0000CD1E468002C12D02368002BF9D00E4BAB
:104700001B68002BEED09C42F3D1EBE702ABD91D26
:104710000A230B7001222000FFF740FFE9E7002F7A
:1047200004D1681E8541E8B205B0F0BDFFF7C0FFB7
:10473000F7E7C0465C090020640900200C4B1A68AA
:104740001300002B0BD0834202D01A00DB68F8E77D
:10475000002903D1DB68D3600023C36070470029C0
:10476000FCD0002A01D0D060F8E7014B1860F5E7D3
:104770005C09002010B5064B1C6800E0E468002CC2
:1047800004D06368002BF9D09847F7E710BDC04606
:104790005C09002070B5050002F05EFE04000122F5
:1047A00001002800FFF78CFFFFF7E4FF200070BD39
:1047B00070B5A2B004000E00FFF764FF050084226C
:1047C000002101A8FFF7DEFE3300220001A90848FE
:1047D000FEF700FF040001A8FFF722FFFFF7CAFF62
:1047E000002D02D1200022B070BDFFF761FFF9E774
:1047F000654600100FB400B583B004A901C901914A
:10480000FFF7D6FF03B008BC04B0184710B500F09E
:1048100033F910BD704700000022014B1A70704739
:10482000831000204B79FF2B01D0002070478B793B
:10483000002B0BD1CB79012B01D00020F6E7082A01
:1048400006D98A78034B1A700920EFE70020EDE7BC
:104850000020EBE783100020012070470120704703
:1048600070B50A794B791B021343144A12789342AC
:1048700001D0002070BD4B78012B03D0022B15D046
:104880000020F7E78A78CB781B021343DA050BD5B3
:104890005A0A012595407F241C400948FEF7B2FEC4
:1048A00003002100280098470025F4E76422002136
:1048B0000020FDF771FB0120DCE7C04683100020DB
:1048C0005542000001230370004870477C850010AA
:1048D00010B50B784A7812021A438B781B041A43DE
:1048E000CB781B0613439622D200934200D010BD12
:1048F0000348FEF787FE0300002108009847C046E2
:104900005542000030B583B004000D0001A91848DD
:1049100002F022FE002808D1D0231B061B68019A52
:10492000934221D0124802F027FE002001F002FE3F
:10493000002807D1032464420D4802F0F5FD200051
:1049400003B030BD002001F017FE002802D103247F
:104950006442F1E72A002100002001F01BFE041E42
:10496000EAD103246442E7E703246442E7E7C04650
:104970003410002010B50021054802F0EDFD00289C
:1049800000D110BD01F07EFB014802F0CDFDF8E73B
:1049900034100020F0B5C64600B582B080460D0048
:1049A00001A92E4802F0D8FD002808D1D0231B060B
:1049B0001B68019A93420FD0284802F0DDFD0020C9
:1049C00001F0B8FD002847D100200021244B1860D9
:1049D0005960224802F0A8FD02B004BC9046F0BD28
:1049E00001F050FB002001F0E9FD002001F0A2FDE4
:1049F0000028EED0002001F053FE00281DD0AC426C
:104A0000E7DA2E1B002001F04BFE864200DC30006E
:104A10000028E5D0434619190200002001F026FEC7
:104A2000060001F02FFB002001F0C8FDA419FCF7DF
:104A300075FD0B4B18605960E1E7FCF76FFD084B03
:104A40001E685F68074A002392197B419942C0D8CB
:104A5000D5D19042D3D9BCE70024D0E73410002050
:104A60001005002020A1070010B51F20FDF79EFBB8
:104A7000FA208000002110BD70B584B0234B1B7854
:104A800002F030F822491F20FDF7A0FB01211F2072
:104A9000FDF784FB1F48FCF769FEFCF76FFB040081
:104AA000FCF73CFD002905DA1B4B1C4A3D211C4844
:104AB000FDF7EAF8FA229200002312184B419942BE
:104AC00002D804D1904202D901225242D317002BBE
:104AD00005DA114B114A3D211148FDF7D5F80121A6
:104AE0000291002101910F4900912000FCF75CFB2D
:104AF0000400631E9C41E4B2002802D1200004B0EF
:104B000070BD01210848FFF719FEF7E7408C00103F
:104B100075490010341000203C760010A485001068
:104B200058760010694A0010B00300200048704712
:104B300060860010004870470C86001010B50028F1
:104B40000BD10F4A0F4B5A80012301335B00C02267
:104B5000920013430B48038010BD05280ED8800037
:104B6000094BC4580023122BEFD8E25C002AECD08A
:104B70000133590003484252DBB2F4E70020EBE76F
:104B80000904000034090020748600107F220240CE
:104B9000C3093420584368235343C018014B1818E5
:104BA0007047C0466809002010B582B001AB0022F2
:104BB0001A7080325A70002408E001AB185DFFF7CC
:104BC000E5FF01234371002303750134012CF4D95F
:104BD00002B010BD10B5C36A402B00D8402316495F
:104BE0000A680261D3180B60990604D03F218B43F9
:104BF000403311490B60104B19688B0610D10F4BD5
:104C00005A404B40802149018B420FD83023C35C6E
:104C10009B061A43A0231B061A4383681A6010BD23
:104C2000074B084A59210848FDF72EF8074B054A5B
:104C30005B210548FDF728F8EC0F0020000010501C
:104C4000688700108C86001098870010F08700108D
:104C5000F8B504007F2008404FB2FE0F2171667046
:104C6000FD43ED0FE570A070002823D10121617193
:104C7000012B21D0402A26D8E2623022A354002EF4
:104C800025D0C3001A4A94466344E360E3680022D7
:104C90001A60A378002B20D0002F22DB0138C0003F
:104CA000144B9C466044A0602000FFF793FF012353
:104CB0002370F8BD0021DAE70F498A42DCD91100E0
:104CC0000E48FCF7FFFF11000C48FCF7FBFFC30088
:104CD0000B4A94466344E360D8E7A360094B236121
:104CE000E5E70138C000084B9C466044A060DBE764
:104CF000800010500C001050FF03000024880010AA
:104D000084001050000110500800105070B50400CD
:104D10000D001600FFF73AFF33002A002100FFF7CD
:104D200097FF70BDF0B5CE46474680B583B0254BA2
:104D30009F6D0026012408E0234B244ADF212448EC
:104D4000FCF7A2FFA74364000136002F34D01F2ECA
:104D500032D83C42F7D01B4BDB6D2342ECD11D4BCC
:104D60009C657308012535406A425541EDB2FF222A
:104D70001A40904634236B43682241464A439B18AD
:104D8000154A91469944484600F0C8FA0028D9D0FF
:104D900034235D43343342465343ED180E4B5D19C3
:104DA000EA692979012300930023002000F048FEDE
:104DB000484600F0F5F9C5E703B00CBC90469946AB
:104DC000F0BDC046000011507C880010A086001085
:104DD00098870010003011506809002070B59823A2
:104DE0001A4AD458E30307D40025E30612D4E30497
:104DF00015D4A54225D170BDFFF7D6FE0122144976
:104E0000002000F004FE80229202124B1A658025D9
:104E10006D02EAE710231D43FFF784FFE7E7002355
:104E20000D4A1370094A136080235B011D43012260
:104E30000121002000F0D8FD80221203054B1A65E5
:104E4000D7E7290061400548FCF73CFF00001150FE
:104E500000001050003011508010002068880010B1
:104E600070B50C0015001E00FFF790FE33002A00FD
:104E7000210000F07FFA70BD10B5FFF795FE012309
:104E8000002200218020FFF7EBFF10BD10B50400C9
:104E9000037D002B11D18378002B05D14378002BA3
:104EA00012D00122094B9A66802212010849200083
:104EB00000F080F90123237510BD064B064A8421BA
:104EC00049000648FCF7E0FE0222EBE70020115003
:104ED000FFF7FFFF4C880010B8860010988700107D
:104EE00010B5FFF753FEFFF7D1FF10BD10B504005A
:104EF0008378002B05D14378002B0AD00122064B82
:104F00009A6600220549200000F054F90023237519
:104F100010BD0222F3E7C04600301150FFF7FFFF3B
:104F200010B5FFF733FEFFF7E1FF10BD10B5002805
:104F300004D101210520FDF731F910BD034B044ACE
:104F40007E21FF310348FCF79FFEC0465C880010BD
:104F5000D88600109887001010B5002804D1064BA1
:104F60001970FFF789FF10BD044B054AC5214900A0
:104F70000448FCF789FEC046801000205C880010C1
:104F8000E88600109887001010B5002804D1802210
:104F90005202054BDA6410BD044B054AD221490088
:104FA0000448FCF771FEC046002011505C880010D8
:104FB000F88600109887001010B5041E28D100F064
:104FC000C7F817490520FDF701F9D022D2000021CA
:104FD0001448FFF7D7FA0022134B1A70134A144BE8
:104FE0001A60002240210020FFF790FE002240219D
:104FF0008020FFF78BFE0F4B01221A64802292055E
:10500000DA640D49902299502000FFF7BDFF10BDD2
:105010000A4B0B4A6021FF310A48FCF735FEC046B7
:10502000DD4D001068090020801000208001105024
:10503000EC0F002000001150101001005C880010DF
:10504000CC8600109887001010B5002808D10B7886
:105050005B0602D14B78052B09D0FFF7A5FD10BDEB
:10506000054B064AB021FF310548FCF70DFE054B04
:105070001A78054B1A60F0E75C880010048700106E
:1050800098870010801000200000115010B50C000F
:1050900000280DD109796279072313401B021943B7
:1050A000E2789207920FA078FFF730FE012010BD42
:1050B000034B044AC021FF310348FCF7E5FDC0461D
:1050C0005C880010208700109887001010B50C0035
:1050D00011001A00002805D101232000FFF7C0FEAF
:1050E000012010BD034B044AE32149000348FCF7AB
:1050F000CBFDC0465C8800103087001098870010F8
:1051000010B5002803D10800FFF7EAFE10BD034BDD
:10511000034AD021FF310348FCF7B6FD5C8800103C
:10512000408700109887001010B5002803D10800B0
:10513000FFF7F6FE10BD034B034AEB21490003487D
:10514000FCF7A2FD5C8800105087001098870010C3
:1051500010B580235B040D4A13600D4A13600D4B9C
:105160009A6880235B049343F9D10B4C9C22002165
:105170002000FFF707FA8022520100210748FFF7BD
:1051800001FA092363670333A36710BD00E0004001
:1051900000F0004000C0004000001150000010501E
:1051A000002303754375322283548361C361036214
:1051B0008362704710B5002902D0C3681B6819408C
:1051C000002A0FD0114353050CD5C26813685B0544
:1051D0000BD40A4B0B401360FFE7FFE7FFE7FFE745
:1051E000FFE7FFE7C368196010BD817843789B0033
:1051F000034A9A580348FCF765FDC046FFFBFFFFD2
:10520000C4030020B488001070B50400056A802231
:10521000D2002A43C378002B14D06379002B1ED010
:10522000802189010A4301214B4063712423E35CFF
:10523000002B02D08023DB011A4300212000FFF75E
:10524000B9FF70BD836AC2699446634419002A009D
:105250000069FFF79DF9842212022A43DDE700214D
:10526000E0E770B504000E001500437D002B15D15A
:10527000A5610023E361402D13D82A002262012397
:105280006375A662521B53425A412423E254002202
:105290000133E2542000FFF7B7FF70BDFFF780FF36
:1052A000E6E74022EAE7000070B50400C3681B6827
:1052B0009D05AD0DC278002A13D11B040BD4C36920
:1052C0005B19C361E378002B04D0236A9D4201D2AD
:1052D000E369A36170BD0D4B0D4ABF210D48FCF77A
:1052E000D3FC1B040CD5836AC2699446634418003E
:1052F0002A002169FFF74CF9E3695B19E361E1E7F3
:10530000054B034AC9210348FCF7BEFC3489001051
:105310008888001054890010AC89001070B5040012
:10532000457D002D17D0FFF7BFFFA169E2698B1AF9
:10533000402B00D940232362D3185B1A58424341C3
:105340002420235491420BD303D02000FFF75CFFAD
:105350000025280070BD8178034A0448FCF7B2FCA0
:105360000348FCF7AFFCC046C4030020E4880010EB
:105370001089001010B50478002C04D0002B09D13E
:10538000FFF7CCFF10BD054B054A0C21FF31054846
:10539000FCF77AFCFFF765FFF4E7C046D4880010FD
:1053A000A08800105489001070B5002403E00D7827
:1053B0002C19A4B2491994420AD24D78052DF6D180
:1053C0008E787A3535406D004519F609AB55EEE714
:1053D00070BD000070B505001C4C37220021200074
:1053E000FFF7D0F8E01C1022FF21FFF7CBF82000D8
:1053F00013301222FF21FFF7C5F800F0E1FF00246F
:105400000DE0E31ADBB2002B1CD1DA00D21A9100B6
:105410000F4B5B185B68280098470134E4B20D4BD2
:105420001B785A1C94420FDA0B4A002A08D09C427F
:10543000E7D2E200121B9100084B1B685B18E9E7FA
:105440002300E0E70023E5E770BDC04678080020B0
:10545000F88A00107E100020C5480010400500208A
:1054600070B505000C001600086900F0B3FFE36892
:1054700031002800984770BDF0B5D6464F4680B53C
:1054800083B001900139C8B2FFF754FB002802D065
:105490004378022B0AD0624A62496348FFF7AAF9AF
:1054A000002003B00CBC91469A46F0BDC5796B094B
:1054B00001225E4C1340190123781026B343AD0935
:1054C0002A4052010B4320218B43134323700700D2
:1054D00009378278C3781B02134382469A447CE0E2
:1054E0003B78B946FF1880E0CA2292004D494E48E9
:1054F000FFF780F90020D4E7E31ADBB2002B21D1BB
:10550000DA00D21A92004A4B9B189B682A00390095
:1055100001989847061E17D10134E4B20094454B18
:105520001B785A1C944252DA434A002A08D09C4203
:10553000E2D2E200121B9200404B1B689B18E4E78A
:105540002300DBE70023E0E7082818D9854216D3BB
:10555000BA78364B9B18DB78FF2B17D1334B9B184F
:10556000DC704B46002B2AD09A78BB789A4214D133
:105570004B461A797B799A420FD101231BE0304ABE
:1055800028492948FFF736F900208AE72D4A25499E
:105590002548FFF72FF9002083E72B4A21492248AD
:1055A000FFF728F900207CE7B97859181F4A5218EC
:1055B000D4700133DBB24A46D2789342F4D323004D
:1055C0003200390019481330FFF7EEFEBF19194BAE
:1055D0001B780133009A9A4210DA574516D27B782D
:1055E0000B2B00D17CE7002399467B78042B00D05D
:1055F0007AE75346DD1BADB200248FE7D522920037
:1056000008490948FFF7F6F800204AE70F4B002B3E
:1056100003D000E000BF012043E7012041E7C0467E
:1056200013030000A88A0010648B00107808002083
:10563000F88A00107E100020C548001040050020A8
:10564000360300003903000043030000000000009F
:10565000F0B583B004000D008B78C87800021843C1
:10566000030AC0B20F2B60D89B00334AD3589F4621
:10567000FFF75CFA020012232900200000F04EFE22
:1056800054E02E4B002B10D000E000BF06006B460C
:105690009F1D811C02223800FEF77AFF3B883200F2
:1056A0002900200000F03AFE40E000203EE0FFF735
:1056B00041FA061E0DD06B469F1D811C0222380048
:1056C000FEF766FF3B8832002900200000F026FE2E
:1056D0002CE01B4A1B491C48FFF78CF8002025E0F2
:1056E0000B79497909021943FFF728FA00281FD0DE
:1056F000037802002900200000F010FE16E0134B92
:10570000002B17D000E000BF002806D0037802006D
:105710002900200000F002FE08E0F0229200094972
:105720000948FFF767F8002000E0002003B0F0BD53
:105730000020FBE70020F9E7D489001000000000FA
:10574000A2030000BC8A0010648B0010000000005F
:10575000024B5878431E9841C0B270477808002029
:10576000024B18784007C00F7047C04678080020E9
:1057700010B5372200212348FEF704FF224C2000F9
:10578000FBF7F4FF214B1C60214C20001830FCF784
:1057900000F8200001F0A1FB1E4B1C601E4B002BEB
:1057A00004D01E48FFF78EF81D4B1860002410E04F
:1057B000E31ADBB2002B07D1DA00D21A9100194BA1
:1057C0005B1802E02300F5E700231B6898470134CB
:1057D000E4B2124B1B785A1C94420BDA0E4A002A90
:1057E000F0D09C42E4D2E200121B91000C4B1B68EB
:1057F0005B18EAE70020FFF7DFFB0020FFF796FBCE
:10580000012010BD7808002030080020B0080020DA
:10581000CC030020B4080020C54800107E100020F2
:1058200040050020F88A001010B54378032B71D092
:1058300031D9042B6AD0052B00D0A0E0644B1B7833
:10584000DB0767D5624A137804218B431370614BE1
:105850001C686369002B00D08BE0A269EFF3108114
:1058600072B61368002BFCD0BFF35F8FE1610100BB
:10587000200001F0C5FAA269E369BFF35F8F002140
:10588000116083F31088002844D1AD225249534857
:10589000FEF7B0FF3EE0022B00D070E04C4B1A78D0
:1058A00001218A431A701A7801318A431A70002242
:1058B0005A701A7802318A431A70464B1C68636921
:1058C000002B1DD1A269EFF3108172B61368002B73
:1058D000FCD0BFF35F8FE1610100200001F090FA7E
:1058E000A269E369BFF35F8F0021116083F3108821
:1058F00000280FD1AD2238493848FEF77BFF09E078
:10590000374B354AA3313748FCF7BEF9304B1B788B
:10591000DB0700D410BD2E4A137804210B4313700B
:105920002C4B1C686369002B1DD1A269EFF3108119
:1059300072B61368002BFCD0BFF35F8FE1610100EA
:10594000200001F05DFAA269E369BFF35F8F0021D7
:10595000116083F310880028DCD1AD221E491F4856
:10596000FEF748FFD6E71E4B1B4AA7211D48FCF750
:105970008BF91B4B184AA3311A48FCF785F9154BD4
:105980001C686369002B1DD1A269EFF3108172B608
:105990001368002BFCD0BFF35F8FE1610100200092
:1059A00001F02EFAA269E369BFF35F8F0021116055
:1059B00083F310880028ADD1AD2207490748FEF7D0
:1059C00019FFA7E7064B044AA7210648FCF75CF934
:1059D00078080020B4080020748A0010648B00103E
:1059E000148B0010248B0010F0B585B007000E005A
:1059F000150001AC0C2200212000FEF7C3FD27702A
:105A0000667029002000FFF70FFF05B0F0BDF0B56C
:105A100085B007000E00150001AC0C22002120000B
:105A2000FEF7B0FD2770062363700822310002A83C
:105A3000FEF7AEFD29002000FFF7F6FE05B0F0BD31
:105A4000F0B5CE46474680B585B0814688461700FA
:105A50001E000CAB1D7801AC0C2200212000FEF7CB
:105A600091FD4B4623700723637043462371A76063
:105A7000667129002000FFF7D7FE05B00CBC9046E8
:105A80009946F0BD10B5FFF701FB10BDF0B5CE464D
:105A9000474680B583B001900C0090461D000A9BDC
:105AA0009946002716E0184A18491948FEF7A2FE41
:105AB0000026300003B00CBC90469946F0BD154A54
:105AC00012491348FEF796FEF3E70B9A13702378FA
:105AD000E4180137474514DA6378052BE3D1E378FE
